:020000020000FC
:100000000BC03F065B4F666D7D077F6F777C395E67
:100010007971060D07070D00209A219A229A259AD8
:100020002D9800E43FEF80E005D05FEFDFEF70D068
:1000300028D0FDCF0F931F931FB71F9318E0001F09
:1000400010F02A9801C02A9A289A28981A95B9F788
:10005000299A29981F911FBF1F910F91089503D0CE
:100060003197E9F7089524E626BD45E045BD01D066
:10007000089575B370FFFDCF40E045BD71E075BBDD
:10008000089510E04F9901D0089505D0143188F0FB
:10009000183254F40895E7DFE6DFE5DFE4DFE3DF5D
:1000A00013954F9B0895F7CF80E03FEF00E4C2DF48
:1000B0000895E2E1F0E0E80F4FB740FDF395449179
:1000C000431729F0D0E08395853041F0089583955A
:1000D000853009F00895DF3F69F000C004E0DFEFEC
:1000E000A9DFE4E8F3E0BBDF00E4A4DF80E03FEF5A
:1000F0000C94170032D000E89DDFDFEFE4EFF1E071
:10010000AEDF2DD080E03FEF00E494DF0C941700C9
:1001100069B160736695669566956695752F73707F
:10012000761709F40895550F550F562B5B3449F097
:10013000573809F008954FE0341759F0339511D02E
:10014000089540E034173CF0303029F03A9509D05A
:1001500008950C9417000C9417002D9A08952D986B
:100160000895E2E0F0E0E30F4FB740FDF39504910E
:0401700061DF0895AE
:00000001FF
